S0180000446F6F725F4C6F636B5F53797374656D2E73726563AC
S11300000C942A000C9447000C9447000C9447006D
S11300100C9447000C9447000C9447000C94470040
S11300200C9447000C9447000C9447000C94470030
S11300300C9447000C9447000C9447000C94470020
S11300400C9447000C9447000C9447000C94470010
S11300500C94470011241FBECFE5D8E0DEBFCDBF0E
S113006010E0A0E6B0E0ECE7F5E002C005900D92E8
S1130070A436B107D9F720E0A4E6B0E001C01D9290
S1130080AE36B207E1F70E9449000C94BC020C940E
S113009000000E9450000E9459000E946C00FBCF97
S11300A00E94E2000E9451020E94C0000E94B60019
S11300B008950E945F02882371F0209168003091B6
S11300C06900F901E659FF4F80832F5F3F4F30935A
S11300D069002093680008958091680090916900F8
S11300E0049709F042C02091660030916700EAE667
S11300F0F0E0A0E6B0E04EE650E091918D919813C7
S113010002C02F5F3F4FE417F507B9F7309367003C
S1130110209366002430310541F484E50E945B029B
S113012085E00E94EB000E94FC00809166009091A3
S11301306700049790F486E40E945B028091640057
S113014090916500019690936500809364001092ED
S11301506900109268000E94CD0080916400909123
S11301606500039710F00E94BB00089561E08DE0E4
S11301700E94FF00089561E08DE00E9488010895C7
S113018061E08AE00E94FF0061E08BE00E94FF00D2
S113019061E08CE00E94FF000895823049F08330D2
S11301A061F0813071F461E08AE00E948801089571
S11301B061E08BE00E948801089561E08CE00E9478
S11301C0880108950E94110262E370E080E090E0EB
S11301D00E942502089590E09C01220F331F220FF4
S11301E0331F820F931F64EB70E00E94630285E06B
S11301F0860F0E94300208950E94470208959DECE4
S1130200899F912D1124292F269526952695220F15
S1130210322F330F330F230F821B282F9695969579
S11302209695613019F06230C1F108959230A1F0D1
S113023018F4913031F008959330C9F0943011F1ED
S113024008953AB381E090E002C0880F991F2A957F
S1130250E2F7832B8ABB089537B381E090E002C0B4
S1130260880F991F2A95E2F7832B87BB089534B32F
S113027081E090E002C0880F991F2A95E2F7832B52
S113028084BB089531B381E090E002C0880F991FC8
S11302902A95E2F7832B81BB08959230A9F018F4D4
S11302A0913031F008959330D9F0943029F10895C4
S11302B03AB381E090E002C0880F991F2A95E2F7D3
S11302C0809583238ABB089537B381E090E002C010
S11302D0880F991F2A95E2F78095832387BB089599
S11302E034B381E090E002C0880F991F2A95E2F7A9
S11302F08095832384BB089531B381E090E002C0EC
S1130300880F991F2A95E2F78095832381BB08956E
S11303109DEC899F912D1124292F269526952695AC
S1130320220F322F330F330F230F821B282F969562
S113033096959695613019F06230C1F10895923026
S1130340A1F018F4913031F008959330C9F094304D
S113035011F108953BB381E090E002C0880F991F2A
S11303602A95E2F7832B8BBB089538B381E090E0A4
S113037002C0880F991F2A95E2F7832B88BB089542
S113038035B381E090E002C0880F991F2A95E2F707
S1130390832B85BB089532B381E090E002C0880FBF
S11303A0991F2A95E2F7832B82BB08959230A9F016
S11303B018F4913031F008959330D9F0943029F144
S11303C008953BB381E090E002C0880F991F2A95FD
S11303D0E2F7809583238BBB089538B381E090E0E6
S11303E002C0880F991F2A95E2F78095832388BB62
S11303F0089535B381E090E002C0880F991F2A95D3
S1130400E2F78095832385BB089532B381E090E0C1
S113041002C0880F991F2A95E2F78095832382BB37
S113042008958D9A8FB58E7F8FBD8FB582608FBDF5
S11304308EB588608EBD8EB580618EBD8FB58F7B85
S11304408FBD8FB580688FBD08959B01AC0164E2B8
S113045074EF80E090E00E94770237BD26BD0895D6
S113046046B557B5282F249FC001259F900D112410
S11304709C013695279536952795ABE7B4E10E9404
S113048099029695879501979BBD8ABD08958EB56F
S11304908E7F8EBD8EB58D7F8EBD8EB584608EBDF4
S11304A008958898899A529887E689B986E880BD24
S11304B0549A539A08958CB95E9BFECF08955F9B1E
S11304C0FECF8CB1089597FB072E16F4009407D045
S11304D077FD09D00E94A80207FC05D03EF4909550
S11304E081959F4F0895709561957F4F0895A1E27E
S11304F01A2EAA1BBB1BFD010DC0AA1FBB1FEE1F9A
S1130500FF1FA217B307E407F50720F0A21BB30BE4
S1130510E40BF50B661F771F881F991F1A9469F760
S113052060957095809590959B01AC01BD01CF01BC
S11305300895A29FB001B39FC001A39F700D811DB8
S11305401124911DB29F700D811D1124911D0895D8
S1130550AA1BBB1B51E107C0AA1FBB1FA617B707E5
S113056010F0A61BB70B881F991F5A95A9F7809501
S10F05709095BC01CD010895F894FFCFD4
S107057C31323334AD
S9030000FC
