:100000000C942A000C943C000C943C000C943C0092
:100010000C943C000C943C000C943C000C943C0070
:100020000C943C000C943C000C9459040C943C003F
:100030000C943C000C943C000C943C000C943C0050
:100040000C943C000C943C000C943C000C943C0040
:100050000C943C0011241FBECFE5D8E0DEBFCDBF1D
:1000600020E0A0E6B0E001C01D92AF36B207E1F794
:100070000E9484000C9413050C9400000E94C3029B
:100080000E9425020E944A0482E080936000089545
:10009000FC013081FB01208132130DC0DC0111967F
:1000A000319605963D912191321307C0A817B907E3
:1000B000C9F781E0089580E0089580E00895EF9207
:1000C000FF920F931F93CF93DF937C01062F172F7F
:1000D000C1E1D3E0CE010E944B02F70181937F0181
:1000E000F80191918F01891307C02196C631F3E081
:1000F000DF0781F781E001C080E0DF91CF911F91A0
:100100000F91FF90EF900895CF93DF93CDB7DEB7B7
:100110002A970FB6F894DEBF0FBECDBF0E94C5046C
:100120000E941B020E9472020E94A9020E942A02DF
:100130000E94D3048032E1F781E193E00E944B02F8
:100140008F3F41F082E080936000809160000E94C8
:10015000CF0406C010926000809160000E94CF041E
:10016000912C7E0186E0E80EF11C0F2EF5E03F2E6B
:10017000F02D0F2EF0E64F2EFAEE5F2E612C712C33
:10018000F02D6E019BE0C90ED11C0F2EF6E02F2E34
:10019000F02D6894882482F880916000823009F400
:1001A00057C028F4882361F08130B9F1F5CF84304D
:1001B00009F4CAC008F462C0853009F410C1ECCF5C
:1001C0008E010F5F1F4F0E94D304D8018D938D01C4
:1001D000EFE9FFE03197F1F700C00000EA16FB06F7
:1001E00091F78E010A5F1F4F0E94D304D8018D93AF
:1001F0008D01EFE9FFE03197F1F700C00000CA166A
:10020000DB0691F7B701CE0101960E944800182F36
:100210000E94CF0410936000BFCFCE0101965C0115
:1002200001E113E0B801D5018D915D010E942D021D
:10023000EFE3FCE93197F1F700C000000F5F1F4FBB
:100240000631F3E01F0771F782E080936000A4CFCE
:1002500080E10E94CF040E94D3048A3221F483E01B
:100260008093600099CF8B3219F48092600094CF14
:100270008D3209F091CF209260008ECF8E010F5FFA
:100280001F4F0E94D304D8018D938D01EFE9FFE049
:100290003197F1F700C00000EA16FB0691F7BE01A6
:1002A0006F5F7F4FC7010E945F00182F0E94CF042D
:1002B00011110BC09394892D0E947F02F3E09F12CD
:1002C000AFC030926000912CABC08FE99FE00197E6
:1002D000F1F700C00000809160000E94CF0411304F
:1002E00009F05ACF81E00E94940282E00E949402B9
:1002F00083E00E94940280E10E94CF0488E99AE39F
:10030000A0E0B0E08093610090936200A09363004E
:10031000B09364000E94DE038EE390E00E945404D8
:10032000609161007091620080916300909164001F
:100330000E94EB030E9440040E94BA028091600078
:100340008230E1F7912C28CF8E010F5F1F4F0E9462
:10035000D304D8018D938D01EFE9FFE03197F1F7D8
:1003600000C00000AE15BF0591F7BE016F5F7F4F63
:10037000C7010E945F00182F0E94CF04111115C001
:100380009394892D0E947F02F3E09F1203C0309264
:100390006000912C8FE99FE00197F1F700C0000009
:1003A000809160000E94CF04F7CE113009F0F4CEA6
:1003B00081E00E94940282E00E94940283E00E9405
:1003C000940210926000AFE9BFE01197F1F700C00E
:1003D0000000809160000E94CF04912CDDCE4092FD
:1003E00061005092620060926300709264000E940B
:1003F000DE038EE390E00E945404609161007091EE
:10040000620080916300909164000E94EB030E945F
:1004100020020E944004809160008230E1F7BCCE4F
:10042000EFE9FFE03197F1F700C000008091600034
:100430000E94CF04B1CE61E08DE00E94CC0208950D
:1004400061E08DE00E945503089562E08DE00E9416
:10045000550308950E94A80408951F93CF93DF9336
:10046000182FEB010E94AE04CE0188279770880FE9
:10047000892F881F990B9195806A0E94B4048C2F54
:100480000E94B404812F0E94B4040E94C204DF9130
:10049000CF911F9108950F931F93CF93DF938C01FA
:1004A0000E94AE04E801CC27D770CC0FCD2FCC1F13
:1004B000DD0BD1958C2F806A0E94B404802F0E949E
:1004C000B4040E94AE048C2F816A0E94B4040E947E
:1004D000BB04C82F0E94C2048C2FDF91CF911F91C3
:1004E0000F91089561E08AE00E94CC0261E08BE008
:1004F0000E94CC0261E08CE00E94CC020895823020
:1005000049F0833061F0813071F461E08AE00E944B
:100510005503089561E08BE00E945503089561E062
:100520008CE00E9455030895823049F0833061F0D9
:10053000813071F462E08AE00E945503089562E020
:100540008BE00E945503089562E08CE00E94550301
:10055000089561E081E20E94CC0261E081E20E94A4
:10056000CC0261E081E20E94550361E082E20E94D8
:100570005503089562E081E20E94550361E082E242
:100580000E945503089561E081E20E94550361E0F5
:1005900081E20E94550308959DEC899F912D1124BD
:1005A000292F269526952695220F322F330F330FAC
:1005B000230F821B282F969596959695613019F0FA
:1005C0006230C1F108959230A1F018F4913031F009
:1005D00008959330C9F0943011F108953AB381E051
:1005E00090E002C0880F991F2A95E2F7832B8ABBFF
:1005F000089537B381E090E002C0880F991F2A95D3
:10060000E2F7832B87BB089534B381E090E002C00A
:10061000880F991F2A95E2F7832B84BB089531B385
:1006200081E090E002C0880F991F2A95E2F7832BA2
:1006300081BB08959230A9F018F4913031F00895FB
:100640009330D9F0943029F108953AB381E090E0E5
:1006500002C0880F991F2A95E2F7809583238ABBF1
:10066000089537B381E090E002C0880F991F2A9562
:10067000E2F78095832387BB089534B381E090E04F
:1006800002C0880F991F2A95E2F78095832384BBC7
:10069000089531B381E090E002C0880F991F2A9538
:1006A000E2F78095832381BB08959DEC899F912D6E
:1006B0001124292F269526952695220F322F330FA8
:1006C000330F230F821B282F9695969596956130B0
:1006D00019F06230C1F108959230A1F018F4913010
:1006E00031F008959330C9F0943011F108953BB37F
:1006F00081E090E002C0880F991F2A95E2F7832BD2
:100700008BBB089538B381E090E002C0880F991F39
:100710002A95E2F7832B88BB089535B381E090E0FA
:1007200002C0880F991F2A95E2F7832B85BB089595
:1007300032B381E090E002C0880F991F2A95E2F75A
:10074000832B82BB08959230A9F018F4913031F0D8
:1007500008959330D9F0943029F108953BB381E0A6
:1007600090E002C0880F991F2A95E2F780958323B5
:100770008BBB089538B381E090E002C0880F991FC9
:100780002A95E2F78095832388BB089535B381E0ED
:1007900090E002C0880F991F2A95E2F78095832385
:1007A00085BB089532B381E090E002C0880F991FA5
:1007B0002A95E2F78095832382BB089583B78860EA
:1007C00083BF83B78F7B83BF89B7826089BF8FB7B1
:1007D00080688FBF08958F929F92AF92BF92CF9201
:1007E000DF92EF92FF92CF939B01AC01A8EEB3E0B2
:1007F0000E94F9044B015C01689415F8B694A79423
:10080000979487941694D1F7C501B4012FEF30E087
:1008100040E050E00E94D704672B682B692B89F4D5
:10082000CFEFC150CC2ED12CE12CF12CC501B4015D
:10083000A70196010E94D704672B682B692B89F3C7
:1008400005C0C12CD12C7601CA94CFEFC501B401EB
:10085000A70196010E94D7042093690030936A0093
:1008600040936B0050936C00C150CCBFCF91FF9070
:10087000EF90DF90CF90BF90AF909F908F900895B2
:1008800083B7816083BF83B78D7F83BF83B7846065
:1008900083BF089583B78E7F83BF83B78D7F83BF68
:1008A00083B78B7F83BF089590936E0080936D0014
:1008B00008951F920F920FB60F9211242F933F931A
:1008C0004F935F936F937F938F939F93AF93BF9358
:1008D000EF93FF938091650090916600A09167006F
:1008E000B09168000196A11DB11D809365009093A1
:1008F0006600A0936700B093680040916900509132
:100900006A0060916B0070916C0084179507A607D0
:10091000B70769F4E0916D00F0916E0009951092AF
:100920006500109266001092670010926800FF91B7
:10093000EF91BF91AF919F918F917F916F915F9157
:100940004F913F912F910F900FBE0F901F901895D0
:100950008CE080B986B7846086BF089584EA86BF3C
:1009600006B607FEFDCF089583B984E886BF06B6B4
:1009700007FEFDCF089584E886BF06B607FEFDCFCB
:1009800083B1089584E986BF08958898899A52981A
:1009900087E689B986E880BD549A539A08958CB940
:1009A0005E9BFECF08955F9BFECF8CB10895A1E2C0
:1009B0001A2EAA1BBB1BFD010DC0AA1FBB1FEE1FD9
:1009C000FF1FA217B307E407F50720F0A21BB30B24
:1009D000E40BF50B661F771F881F991F1A9469F7A0
:1009E00060957095809590959B01AC01BD01CF01FC
:1009F00008950E940405A59F900DB49F900DA49F9B
:100A0000800D911D11240895A29FB001B39FC001D4
:100A1000A39F700D811D1124911DB29F700D811D2A
:0A0A20001124911D0895F894FFCFF2
:00000001FF
