:100000000C942A000C9434000C9434000C943400AA
:100010000C9434000C9434000C9434000C94340090
:100020000C9434000C9434000C9434000C94340080
:100030000C9434000C9434000C9434000C94340070
:100040000C9434000C9434000C9434000C94340060
:100050000C94340011241FBECFE5D8E0DEBFCDBF25
:100060000E9436000C94F7010C940000CF93DF93AC
:1000700000D000D0CDB7DEB70E94E50181E00E943C
:10008000BE000E94870081E00E9494002FEF83ED64
:1000900090E3215080409040E1F700C0000081E0F3
:1000A0000E94A900DD24D394E12CF12C08E7C12C97
:1000B00001C0012F0E94F301182F0817F9F0E1E0A9
:1000C000F0E0EC0FFD1FEE0DFF1D80832FEFE21A15
:1000D000F20A14C0219130E02817390709F0DC2C0E
:1000E000019685339105B1F7DD2021F084E50E946A
:1000F000EF01DFCF86E40E94EF01DBCF83E0E8165B
:10010000F104B9F6FE01319681E390E0E3CF61E0BE
:100110008AE00E94D30061E08BE00E94D30061E09E
:100120008CE00E94D3000895823049F0833061F062
:10013000813071F461E08AE00E945C01089561E021
:100140008BE00E945C01089561E08CE00E945C01FC
:100150000895823049F0833061F0813071F462E0BB
:100160008AE00E945C01089562E08BE00E945C01DD
:10017000089562E08CE00E945C010895823049F0AD
:10018000833061F0813071F462E08EE00E94D30030
:10019000089562E08EE20E94D300089562E08AE250
:1001A0000E94D30008959DEC899F912D1124292F41
:1001B000269526952695220F322F330F330F230FC6
:1001C000821B282F969596959695613019F062308E
:1001D000C1F108959230A1F018F4913031F00895F2
:1001E0009330C9F0943011F108953AB381E090E072
:1001F00002C0880F991F2A95E2F7832B8ABB0895C6
:1002000037B381E090E002C0880F991F2A95E2F78A
:10021000832B87BB089534B381E090E002C0880F40
:10022000991F2A95E2F7832B84BB089531B381E0AF
:1002300090E002C0880F991F2A95E2F7832B81BBBB
:1002400008959230A9F018F4913031F00895933068
:10025000D9F0943029F108953AB381E090E002C0DA
:10026000880F991F2A95E2F7809583238ABB08950A
:1002700037B381E090E002C0880F991F2A95E2F71A
:100280008095832387BB089534B381E090E002C05A
:10029000880F991F2A95E2F78095832384BB0895E0
:1002A00031B381E090E002C0880F991F2A95E2F7F0
:1002B0008095832381BB08959DEC899F912D112406
:1002C000292F269526952695220F322F330F330F8F
:1002D000230F821B282F969596959695613019F0DD
:1002E0006230C1F108959230A1F018F4913031F0EC
:1002F00008959330C9F0943011F108953BB381E033
:1003000090E002C0880F991F2A95E2F7832B8BBBE0
:10031000089538B381E090E002C0880F991F2A95B4
:10032000E2F7832B88BB089535B381E090E002C0EB
:10033000880F991F2A95E2F7832B85BB089532B366
:1003400081E090E002C0880F991F2A95E2F7832B85
:1003500082BB08959230A9F018F4913031F00895DD
:100360009330D9F0943029F108953BB381E090E0C7
:1003700002C0880F991F2A95E2F7809583238BBBD3
:10038000089538B381E090E002C0880F991F2A9544
:10039000E2F78095832388BB089535B381E090E030
:1003A00002C0880F991F2A95E2F78095832385BBA9
:1003B000089532B381E090E002C0880F991F2A951A
:1003C000E2F78095832382BB08958898899A529892
:1003D00087E689B986E880BD549A539A08958CB906
:1003E0005E9BFECF08955F9BFECF8CB10895F8947D
:0203F000FFCF3D
:00000001FF
