:100000000C942A000C943C000C943C000C943C0092
:100010000C943C000C943C000C943C000C943C0070
:100020000C943C000C943C000C9440040C943C0058
:100030000C943C000C943C000C943C000C943C0050
:100040000C943C000C943C000C943C000C943C0040
:100050000C943C0011241FBECFE5D8E0DEBFCDBF1D
:1000600020E0A0E6B0E001C01D92AF36B207E1F794
:100070000E9480000C944B050C9400000E94AA0280
:100080000E9415020E94310482E08093600008956E
:10009000FC013081FB01208132130DC0DC0111967F
:1000A000319605963D912191321307C0A817B907E3
:1000B000C9F781E0089580E0089580E00895EF9207
:1000C000FF920F931F93CF937C01062F172FC1E050
:1000D0006C2F81E00E943E02F70181937F01F801BD
:1000E00091918F01891305C0CF5FC63089F781E0F8
:1000F00001C080E0CF911F910F91FF90EF90089584
:10010000CF93DF93CDB7DEB72A970FB6F894DEBF53
:100110000FBECDBF0E94FD040E940B020E94590237
:100120000E9490020E941A020E940B058032E1F7A1
:1001300061E081E00E943E028F3F41F082E08093C7
:100140006000809160000E94070506C01092600068
:10015000809160000E940705712C8E010A5F1F4F7D
:100160000F2EF8E92F2EFAE33F2E412C512CF02DC3
:100170000F2EF0E68F2EFAEE9F2EA12CB12CF02D33
:100180006E018BE0C80ED11C6090600092E0691691
:1001900009F45AC0961530F0662081F0E1E06E1641
:1001A000D9F1F2CFF4E06F1609F4C9C06F1608F464
:1001B00063C085E0681609F402C1E6CFFE013196FE
:1001C0007F010E940B05F70181937F018FE99FE07A
:1001D0000197F1F700C000000E171F0791F77E018D
:1001E00096E0E90EF11C0E940B05F70181937F0157
:1001F0008FE99FE00197F1F700C00000CE16DF06FF
:1002000091F7B801CE0101960E944800F82E0E9495
:100210000705F0926000B8CFFE0131967F01462DB0
:1002200061E0F70181917F010E9426028FE39CE942
:100230000197F1F700C00000639496E06912EFCFD8
:1002400082E080936000A0CF80E10E9407050E94B9
:100250000B058A3221F483E08093600095CF8B32C6
:1002600021F4E4E0E09360008FCF8D3209F08CCF71
:10027000F6E0F093600088CFCE0101967C010E94E9
:100280000B05F70181937F018FE99FE00197F1F75B
:1002900000C000000E171F0791F7BE016F5F7F4F70
:1002A000C8010E945F00F82E0E940705F1100CC0E3
:1002B0007394872D0E94660293E07912A1C0E5E055
:1002C000E0936000712C9CC08FE99FE00197F1F7EB
:1002D00000C00000809160000E94070591E0F912C3
:1002E00053CF81E00E947B0282E00E947B0283E088
:1002F0000E947B0280E10E940705209261003092FB
:10030000620040926300509264000E94C5038EE335
:1003100090E00E943B0460916100709162008091C6
:100320006300909164000E94D2030E9427040E94FF
:10033000A102809160008230E1F7712C25CFFE018F
:1003400031967F010E940B05F70181937F018FE9B0
:100350009FE00197F1F700C00000E017F10791F767
:10036000BE016F5F7F4FC8010E945F00F82E0E94A0
:100370000705F11010C07394872D0E94660293E068
:10038000791204C0E5E0E0936000712C8091600078
:100390000E940705F9CEF1E0FF12F6CE81E00E943F
:1003A0007B0282E00E947B0283E00E947B0210922B
:1003B0006000809160000E940705712CE5CE80925C
:1003C000610090926200A0926300B09264000E946B
:1003D000C5038EE390E00E943B0460916100709140
:1003E000620080916300909164000E94D2030E9499
:1003F00010020E942704809160008230E1F7C4CE91
:100400008FE99FE00197F1F700C000008091600044
:100410000E940705B9CE61E08DE00E94B302089505
:1004200061E08DE00E943C03089562E08DE00E944F
:100430003C0308950E948F042FEF87EA91E6215034
:1004400080409040E1F700C0000008951F93CF93D3
:10045000DF93C82F162FD42F0E949504812F80651B
:100460000E94A3048D2F0E94C4048C2F0E94C404F8
:100470000E94F604DF91CF911F910895CF93DF93EF
:10048000C82FD62F0E949504C0658C2F0E94A3040C
:100490008D2F0E94C4040E94E8048C2F0E94B30494
:1004A0000E94D304C82F0E94F6048C2FDF91CF91B5
:1004B000089561E08AE00E94B30261E08BE00E944F
:1004C000B30261E08CE00E94B3020895823049F0EB
:1004D000833061F0813071F461E08AE00E943C0376
:1004E000089561E08BE00E943C03089561E08CE098
:1004F0000E943C030895823049F0833061F08130DE
:1005000071F462E08AE00E943C03089562E08BE0AF
:100510000E943C03089562E08CE00E943C03089531
:1005200061E081E20E94B30261E081E20E94B302D5
:1005300061E081E20E943C0361E082E20E943C03B0
:10054000089562E081E20E943C0361E082E20E9441
:100550003C03089561E081E20E943C0361E081E296
:100560000E943C0308959DEC899F912D1124292F11
:10057000269526952695220F322F330F330F230F02
:10058000821B282F969596959695613019F06230CA
:10059000C1F108959230A1F018F4913031F008952E
:1005A0009330C9F0943011F108953AB381E090E0AE
:1005B00002C0880F991F2A95E2F7832B8ABB089502
:1005C00037B381E090E002C0880F991F2A95E2F7C7
:1005D000832B87BB089534B381E090E002C0880F7D
:1005E000991F2A95E2F7832B84BB089531B381E0EC
:1005F00090E002C0880F991F2A95E2F7832B81BBF8
:1006000008959230A9F018F4913031F008959330A4
:10061000D9F0943029F108953AB381E090E002C016
:10062000880F991F2A95E2F7809583238ABB089546
:1006300037B381E090E002C0880F991F2A95E2F756
:100640008095832387BB089534B381E090E002C096
:10065000880F991F2A95E2F78095832384BB08951C
:1006600031B381E090E002C0880F991F2A95E2F72C
:100670008095832381BB08959DEC899F912D112442
:10068000292F269526952695220F322F330F330FCB
:10069000230F821B282F969596959695613019F019
:1006A0006230C1F108959230A1F018F4913031F028
:1006B00008959330C9F0943011F108953BB381E06F
:1006C00090E002C0880F991F2A95E2F7832B8BBB1D
:1006D000089538B381E090E002C0880F991F2A95F1
:1006E000E2F7832B88BB089535B381E090E002C028
:1006F000880F991F2A95E2F7832B85BB089532B3A3
:1007000081E090E002C0880F991F2A95E2F7832BC1
:1007100082BB08959230A9F018F4913031F0089519
:100720009330D9F0943029F108953BB381E090E003
:1007300002C0880F991F2A95E2F7809583238BBB0F
:10074000089538B381E090E002C0880F991F2A9580
:10075000E2F78095832388BB089535B381E090E06C
:1007600002C0880F991F2A95E2F78095832385BBE5
:10077000089532B381E090E002C0880F991F2A9556
:10078000E2F78095832382BB089583B7886083BF97
:1007900083B78F7B83BF89B7826089BF8FB780683B
:1007A0008FBF08958F929F92AF92BF92CF92DF92A8
:1007B000EF92FF92CF939B01AC01A8EEB3E00E94B1
:1007C00031054B015C01689415F8B694A794979491
:1007D00087941694D1F7C501B4012FEF30E040E0C3
:1007E00050E00E940F05672B682B692B89F4CFEF2F
:1007F000C150CC2ED12CE12CF12CC501B401A701A4
:1008000096010E940F05672B682B692B89F305C0A1
:10081000C12CD12C7601CA94CFEFC501B401A70138
:1008200096010E940F052093690030936A0040935F
:100830006B0050936C00C150CCBFCF91FF90EF90F4
:10084000DF90CF90BF90AF909F908F90089583B727
:10085000816083BF83B78D7F83BF83B7846083BF8D
:10086000089583B78E7F83BF83B78D7F83BF83B7A0
:100870008B7F83BF089590936E0080936D000895E1
:100880001F920F920FB60F9211242F933F934F9305
:100890005F936F937F938F939F93AF93BF93EF93E8
:1008A000FF938091650090916600A0916700B091E0
:1008B00068000196A11DB11D8093650090936600AC
:1008C000A0936700B09368004091690050916A005E
:1008D00060916B0070916C0084179507A607B707AD
:1008E00069F4E0916D00F0916E0009951092650039
:1008F000109266001092670010926800FF91EF91CD
:10090000BF91AF919F918F917F916F915F914F9127
:100910003F912F910F900FBE0F901F9018958CE074
:1009200080B986B7846086BF089586B7806286BF27
:1009300086B7806886BF06B607FEFDCF81B1887F87
:100940008830E1F70895880F83B986B78F7D86BF19
:1009500086B7806886BF06B607FEFDCF81B1887F67
:100960008831E1F70895880F816083B986B78F7D5C
:1009700086BF86B7806886BF06B607FEFDCF81B109
:10098000887F8034E1F7089583B986B78F7D86BF6D
:1009900086B7806886BF06B607FEFDCF81B1887F27
:1009A0008832E1F7089586B78F7D86BF86B78F7E40
:1009B00086BF86B7806486BF86B7806886BF06B666
:1009C00007FEFDCF81B1887F8035E1F783B10895BF
:1009D00086B7806286BF86B7806886BF06B607FE88
:1009E000FDCF81B1887F8031E1F7089586B78061BE
:1009F00086BF86B7806886BF08958898899A52987E
:100A000087E689B986E880BD549A539A08958CB9CF
:100A10005E9BFECF08955F9BFECF8CB10895A1E24F
:100A20001A2EAA1BBB1BFD010DC0AA1FBB1FEE1F68
:100A3000FF1FA217B307E407F50720F0A21BB30BB3
:100A4000E40BF50B661F771F881F991F1A9469F72F
:100A500060957095809590959B01AC01BD01CF018B
:100A600008950E943C05A59F900DB49F900DA49FF2
:100A7000800D911D11240895A29FB001B39FC00164
:100A8000A39F700D811D1124911DB29F700D811DBA
:0A0A90001124911D0895F894FFCF82
:00000001FF
