S0180000446F6F725F4C6F636B5F53797374656D2E73726563AC
S11300000C942A000C9434000C9434000C943400A6
S11300100C9434000C9434000C9434000C9434008C
S11300200C9434000C9434000C9434000C9434007C
S11300300C9434000C9434000C9434000C9434006C
S11300400C9434000C9434000C9434000C9434005C
S11300500C94340011241FBECFE5D8E0DEBFCDBF21
S11300600E9436000C94F7010C940000CF93DF93A8
S1130070CDB7DEB728970FB6F894DEBF0FBECDBF5D
S11300800E94E5010E94B1000E94A70081E38D83D4
S113009082E38E8383E38F8384E3888700E010E028
S11300A0C12CD12CE12CF12C0E94F301882309F4FA
S11300B044C0E1E0F0E0EC0FFD1FEE0DFF1D808376
S11300C08FEFE81AF80A39C091918D91981303C003
S11300D08FEFC81AD80A2E173F07B1F784E0C81665
S11300E0D10421F484E50E94EF010BC084E0C8161A
S11300F0D1043CF486E40E94EF010F5F1F4FE12C12
S1130100F12C0130110521F481E00E94BE000EC0E3
S11301100230110521F482E00E94BE00C5CF0330F5
S1130120110521F483E00E94BE00BECF0430110506
S113013009F0BACF0E94AC00B7CF84E0E816F1040E
S113014001F7FE013196DE0115969D01BDCF61E0F8
S11301508DE00E94D300089561E08DE00E945C016F
S1130160089561E08AE00E94D30061E08BE00E9480
S1130170D30061E08CE00E94D3000895823049F0FE
S1130180833061F0813071F461E08AE00E945C01A7
S1130190089561E08BE00E945C01089561E08CE0C9
S11301A00E945C0108959DEC899F912D1124292FB3
S11301B0269526952695220F322F330F330F230FC2
S11301C0821B282F969596959695613019F062308A
S11301D0C1F108959230A1F018F4913031F00895EE
S11301E09330C9F0943011F108953AB381E090E06E
S11301F002C0880F991F2A95E2F7832B8ABB0895C2
S113020037B381E090E002C0880F991F2A95E2F786
S1130210832B87BB089534B381E090E002C0880F3C
S1130220991F2A95E2F7832B84BB089531B381E0AB
S113023090E002C0880F991F2A95E2F7832B81BBB7
S113024008959230A9F018F4913031F00895933064
S1130250D9F0943029F108953AB381E090E002C0D6
S1130260880F991F2A95E2F7809583238ABB089506
S113027037B381E090E002C0880F991F2A95E2F716
S11302808095832387BB089534B381E090E002C056
S1130290880F991F2A95E2F78095832384BB0895DC
S11302A031B381E090E002C0880F991F2A95E2F7EC
S11302B08095832381BB08959DEC899F912D112402
S11302C0292F269526952695220F322F330F330F8B
S11302D0230F821B282F969596959695613019F0D9
S11302E06230C1F108959230A1F018F4913031F0E8
S11302F008959330C9F0943011F108953BB381E02F
S113030090E002C0880F991F2A95E2F7832B8BBBDC
S1130310089538B381E090E002C0880F991F2A95B0
S1130320E2F7832B88BB089535B381E090E002C0E7
S1130330880F991F2A95E2F7832B85BB089532B362
S113034081E090E002C0880F991F2A95E2F7832B81
S113035082BB08959230A9F018F4913031F00895D9
S11303609330D9F0943029F108953BB381E090E0C3
S113037002C0880F991F2A95E2F7809583238BBBCF
S1130380089538B381E090E002C0880F991F2A9540
S1130390E2F78095832388BB089535B381E090E02C
S11303A002C0880F991F2A95E2F78095832385BBA5
S11303B0089532B381E090E002C0880F991F2A9516
S11303C0E2F78095832382BB08958898899A52988E
S11303D087E689B986E880BD549A539A08958CB902
S11303E05E9BFECF08955F9BFECF8CB10895F89479
S10503F0FFCF39
S9030000FC
