:100000000C942A000C943F000C943F000C943F0089
:100010000C943F000C943F000C943F000C943F0064
:100020000C943F000C943F000C943F000C943F0054
:100030000C943F000C943F000C943F000C943F0044
:100040000C943F000C943F000C943F000C943F0034
:100050000C943F0011241FBECFE5D8E0DEBFCDBF1A
:1000600010E0A0E6B0E0EAE4F8E002C005900D92EE
:10007000AA36B107D9F70E9441000C9423040C94CE
:1000800000000E94DB0181E00E9412020E94F20047
:1000900062E872E380E090E00E94540181E00E94F7
:1000A00027028130D9F70E94D70181E00E94E80140
:1000B0002FEF81EE94E0215080409040E1F700C0A6
:1000C000000081E00E94FD0180E690E00E943E0178
:1000D0002FEF81EE94E0215080409040E1F700C086
:1000E00000000E94D701DACFCF93C82F61E085E1ED
:1000F0000E9415038BB39C2F907F8F70892B8BBB35
:1001000061E087E10E9415038FE99FE00197F1F715
:1001100000C0000062E087E10E9415038FE19EE4C9
:100120000197F1F700C000002BB330E1C39FC0017D
:100130001124922F9F70892B8BBB61E087E10E9475
:1001400015038FE99FE00197F1F700C0000062E01E
:1001500087E10E9415038FE19EE40197F1F700C04B
:100160000000CF910895CF93C82F62E085E10E94EF
:1001700015038BB39C2F907F8F70892B8BBB61E015
:1001800087E10E9415038FE99FE00197F1F700C016
:10019000000062E087E10E9415038FE19EE4019771
:1001A000F1F700C000002BB330E1C39FC001112460
:1001B000922F9F70892B8BBB61E087E10E94150312
:1001C0008FE99FE00197F1F700C0000062E087E14E
:1001D0000E9415038FE19EE40197F1F700C0000033
:1001E000CF91089561E08AE00E948C0261E08BE08B
:1001F0000E948C0261E08CE00E948C0261E08DE044
:100200000E948C0261E08EE00E948C0261E08FE02F
:100210000E948C0261E080E10E948C0261E081E139
:100220000E948C0261E085E10E948C0261E086E11F
:100230000E948C0261E087E10E948C0262E086E10C
:100240000E9415032FEF83ED90E3215080409040F2
:10025000E1F700C0000083E30E94B30082E30E9444
:10026000B30088E20E94B3008CE00E94B30081E0FA
:100270000E94B30082E00E94B30008950F931F9381
:10028000CF93FC018081882359F08F01C0E00E9448
:100290007400CF5FF801EC0FF11D80818111F7CF61
:1002A000CF911F910F9108954F925F926F927F921D
:1002B000AF92BF92CF92DF92EF92FF921F93CF93B4
:1002C000DF93CDB7DEB72A970FB6F894DEBF0FBE27
:1002D000CDBF6B017C01FE0131968AE0DF011D92EA
:1002E0008A95E9F7C114D104E104F10421F480E313
:1002F0000E94740048C0FF2084F48DE20E947400C4
:10030000F094E094D094C094C11CD11CE11CF11C69
:10031000C114D104E104F104B1F110E00F2EFAE0B0
:100320004F2E512C612C712CF02D01C0182FAA24B6
:10033000A394B12CAC0EBD1EA10EB11C17FDBA9436
:10034000C701B601A30192010E94E203F501608397
:1003500081E0810FC22ED32EE42EF52EC114D104DC
:10036000E104F10419F7112374F0E1E0F0E0EC0F7F
:10037000FD1FE10FF11D17FDFA958081805D0E9440
:100380007400115092F72A960FB6F894DEBF0FBE94
:10039000CDBFDF91CF911F91FF90EF90DF90CF9075
:1003A000BF90AF907F906F905F904F90089581E0E5
:1003B0000E94B300089561E080E20E948C0261E037
:1003C00085E20E948C0261E08BE20E948C0208951B
:1003D000823049F0833061F0813071F461E080E275
:1003E0000E941503089561E085E20E9415030895B7
:1003F00061E08BE20E9415030895823049F083305A
:1004000061F0813071F462E080E20E94150308958A
:1004100062E085E20E941503089562E08BE20E948B
:1004200015030895823049F0833061F0813071F412
:1004300062E084E10E948C02089562E08EE20E94F4
:100440008C02089562E08AE20E948C020895823054
:1004500009F18330C9F1813009F050C084E10E9474
:100460009E03813009F04CC02FEF89EF90E02150BE
:1004700080409040E1F700C0000084E10E949E03AC
:10048000813009F03FC084E10E949E038130D9F39E
:1004900081E008958EE20E949E038130A9F52FEF3E
:1004A00089EF90E0215080409040E1F700C00000CB
:1004B0008EE20E949E03813049F58EE20E949E03E7
:1004C0008130D9F381E008958AE20E949E03813051
:1004D000F9F42FEF89EF90E0215080409040E1F750
:1004E00000C000008AE20E949E03813099F48AE2F3
:1004F0000E949E038130D9F381E0089580E0089541
:1005000080E0089580E0089580E0089580E00895F7
:1005100080E0089580E008959DEC899F912D11243D
:10052000292F269526952695220F322F330F330F2C
:10053000230F821B282F969596959695613019F07A
:100540006230C1F108959230A1F018F4913031F089
:1005500008959330C9F0943011F108953AB381E0D1
:1005600090E002C0880F991F2A95E2F7832B8ABB7F
:10057000089537B381E090E002C0880F991F2A9553
:10058000E2F7832B87BB089534B381E090E002C08B
:10059000880F991F2A95E2F7832B84BB089531B306
:1005A00081E090E002C0880F991F2A95E2F7832B23
:1005B00081BB08959230A9F018F4913031F008957C
:1005C0009330D9F0943029F108953AB381E090E066
:1005D00002C0880F991F2A95E2F7809583238ABB72
:1005E000089537B381E090E002C0880F991F2A95E3
:1005F000E2F78095832387BB089534B381E090E0D0
:1006000002C0880F991F2A95E2F78095832384BB47
:10061000089531B381E090E002C0880F991F2A95B8
:10062000E2F78095832381BB08959DEC899F912DEE
:100630001124292F269526952695220F322F330F28
:10064000330F230F821B282F969596959695613030
:1006500019F06230C1F108959230A1F018F4913090
:1006600031F008959330C9F0943011F108953BB3FF
:1006700081E090E002C0880F991F2A95E2F7832B52
:100680008BBB089538B381E090E002C0880F991FBA
:100690002A95E2F7832B88BB089535B381E090E07B
:1006A00002C0880F991F2A95E2F7832B85BB089516
:1006B00032B381E090E002C0880F991F2A95E2F7DB
:1006C000832B82BB08959230A9F018F4913031F059
:1006D00008959330D9F0943029F108953BB381E027
:1006E00090E002C0880F991F2A95E2F78095832336
:1006F0008BBB089538B381E090E002C0880F991F4A
:100700002A95E2F78095832388BB089535B381E06D
:1007100090E002C0880F991F2A95E2F78095832305
:1007200085BB089532B381E090E002C0880F991F25
:100730002A95E2F78095832382BB08959DEC899FDB
:10074000912D1124292F269526952695220F322F9B
:10075000330F330F230F821B282F892F8695869501
:100760008695823091F018F4813031F029C08330C1
:10077000A9F08430E1F024C089B390E002C09595DF
:1007800087952A95E2F78170089586B390E002C0BC
:10079000959587952A95E2F78170089583B390E047
:1007A00002C0959587952A95E2F78170089580B3E8
:1007B00090E002C0959587952A95E2F7817008959B
:1007C00080E00895052E97FB1EF400940E94F90323
:1007D00057FD07D00E94010407FC03D04EF40C948F
:1007E000F90350954095309521953F4F4F4F5F4FFE
:1007F000089590958095709561957F4F8F4F9F4F8D
:100800000895A1E21A2EAA1BBB1BFD010DC0AA1F51
:10081000BB1FEE1FFF1FA217B307E407F50720F069
:10082000A21BB30BE40BF50B661F771F881F991FE4
:100830001A9469F760957095809590959B01AC012D
:0A084000BD01CF010895F894FFCF29
:0A084A0074657374204C43440000F1
:00000001FF
