:100000000C942A000C9434000C9434000C943400AA
:100010000C9434000C9434000C9434000C94340090
:100020000C9434000C9434000C9434000C94340080
:100030000C9434000C9434000C9434000C94340070
:100040000C9434000C9434000C9434000C94340060
:100050000C94340011241FBECFE5D8E0DEBFCDBF25
:100060000E9436000C9456020C9400000E944F002F
:1000700081E00E94860081E00E949B00813011F4A3
:100080000E945C002FEF81EE94E021508040904070
:10009000E1F700C0000081E00E947100ECCF61E058
:1000A00080E20E94000161E085E20E94000161E0BF
:1000B0008BE20E9400010895823049F0833061F0A4
:1000C000813071F461E080E20E948901089561E06D
:1000D00085E20E948901089561E08BE20E94890116
:1000E0000895823049F0833061F0813071F462E02C
:1000F00080E20E948901089562E085E20E94890100
:10010000089562E08BE20E9489010895823049F0EF
:10011000833061F0813071F462E084E10E9400017B
:10012000089562E08EE20E940001089562E08AE292
:100130000E9400010895823009F18330C9F18130B5
:1001400009F050C084E10E941202813009F04CC0D5
:100150002FEF89EF90E0215080409040E1F700C000
:10016000000084E10E941202813009F03FC084E166
:100170000E9412028130D9F381E008958EE20E943C
:1001800012028130A9F52FEF89EF90E021508040D5
:100190009040E1F700C000008EE20E941202813020
:1001A00049F58EE20E9412028130D9F381E0089570
:1001B0008AE20E9412028130F9F42FEF89EF90E079
:1001C000215080409040E1F700C000008AE20E9488
:1001D0001202813099F48AE20E9412028130D9F32E
:1001E00081E0089580E0089580E0089580E008951A
:1001F00080E0089580E0089580E0089580E008950B
:100200009DEC899F912D1124292F269526952695C1
:10021000220F322F330F330F230F821B282F969577
:1002200096959695613019F06230C1F1089592303B
:10023000A1F018F4913031F008959330C9F0943062
:1002400011F108953AB381E090E002C0880F991F40
:100250002A95E2F7832B8ABB089537B381E090E0BB
:1002600002C0880F991F2A95E2F7832B87BB089558
:1002700034B381E090E002C0880F991F2A95E2F71D
:10028000832B84BB089531B381E090E002C0880FD6
:10029000991F2A95E2F7832B81BB08959230A9F02C
:1002A00018F4913031F008959330D9F0943029F159
:1002B00008953AB381E090E002C0880F991F2A9513
:1002C000E2F7809583238ABB089537B381E090E0FD
:1002D00002C0880F991F2A95E2F78095832387BB78
:1002E000089534B381E090E002C0880F991F2A95E9
:1002F000E2F78095832384BB089531B381E090E0D9
:1003000002C0880F991F2A95E2F78095832381BB4D
:1003100008959DEC899F912D1124292F26952695CE
:100320002695220F322F330F330F230F821B282FD6
:10033000969596959695613019F06230C1F10895C1
:100340009230A1F018F4913031F008959330C9F053
:10035000943011F108953BB381E090E002C0880F22
:10036000991F2A95E2F7832B8BBB089538B381E060
:1003700090E002C0880F991F2A95E2F7832B88BB73
:10038000089535B381E090E002C0880F991F2A9547
:10039000E2F7832B85BB089532B381E090E002C081
:1003A000880F991F2A95E2F7832B82BB089592301C
:1003B000A9F018F4913031F008959330D9F09430C9
:1003C00029F108953BB381E090E002C0880F991FA6
:1003D0002A95E2F7809583238BBB089538B381E09B
:1003E00090E002C0880F991F2A95E2F78095832339
:1003F00088BB089535B381E090E002C0880F991F53
:100400002A95E2F78095832385BB089532B381E076
:1004100090E002C0880F991F2A95E2F78095832308
:1004200082BB08959DEC899F912D1124292F26953B
:1004300026952695220F322F330F330F230F821B61
:10044000282F892F869586958695823091F018F40D
:10045000813031F029C08330A9F08430E1F024C02C
:1004600089B390E002C0959587952A95E2F781704F
:10047000089586B390E002C0959587952A95E2F796
:100480008170089583B390E002C0959587952A9571
:10049000E2F78170089580B390E002C0959587954A
:1004A0002A95E2F78170089580E00895F894FFCFCF
:00000001FF
