:100000000C942A000C9447000C9447000C94470071
:100010000C9447000C9447000C9447000C94470044
:100020000C9447000C9447000C94A4060C944700D1
:100030000C9447000C9447000C9447000C94470024
:100040000C9447000C9447000C9447000C94470014
:100050000C94470011241FBECFE5D8E0DEBFCDBF12
:1000600011E0A0E6B0E0E6E8FEE002C005900D92E7
:10007000A838B107D9F721E0A8E8B1E001C01D9286
:10008000A339B207E1F70E944F000C9441070C948A
:1000900000000E94950682E0809388010895CF9326
:1000A000DF9300D000D01F92CDB7DEB70E94BC0214
:1000B0000E94E0030E94F30680E20E94FD060E9477
:1000C0000107809388016894AA24A2F80F2EF3E018
:1000D000BF2EF02D7E0126E0E20EF11C6894CC24A8
:1000E000C1F880918801823009F4FFC030F4882380
:1000F00069F0813009F4E1C0F4CF843009F4A8C17B
:1001000008F426C1853009F40DC2EBCF80E790E0FA
:100110000E942C048FEF99E6E8E181509040E04086
:10012000E1F700C0000089E091E00E942C040E94E9
:10013000460400E010E00E94FD02D82EE1E0F0E06D
:10014000EC0FFD1FE00FF11F80838AE20E94620323
:10015000F3E4DF120BC00E94420489E091E00E94A8
:100160002C040E94460400E010E0E5CF0F5F1F4F13
:100170000530110504F30E94420480E890E00E94DB
:100180002C040E9446048DE890E00E942C040E94FA
:10019000FD028D3391F7CE0101964C018C01F801DF
:1001A00081918F010E94FD060E151F05C1F70E9467
:1001B00042048EE990E00E942C04FFEF29E688E1DA
:1001C000F15020408040E1F700C000000E9442044E
:1001D0008DEA90E00E942C040E94460489E091E0A0
:1001E0000E942C049FEFE9E6F8E19150E040F040D6
:1001F000E1F700C000000E94420489E091E00E9403
:100200002C040E94460400E010E00E94FD02D82E5B
:10021000E1E0F0E0EC0FFD1FE00FF11F80838AE2C8
:100220000E94620323E4D2120BC00E94420489E0C0
:1002300091E00E942C040E94460400E010E0E5CF0B
:100240000F5F1F4F0530110504F30E94420480E840
:1002500090E00E942C040E9446048DE890E00E94E9
:100260002C040E94FD028D3391F7F40181914F011E
:100270000E94FD068E149F04C1F70E9442048EE97D
:1002800090E00E942C040E940107809388010E9444
:10029000420480918801811124CF8CEB90E00E9470
:1002A0002C04FFEF23ED80E3F15020408040E1F784
:1002B00000C000000E94420414CF8BEC90E00E942A
:1002C0002C040E94460488ED90E00E942C049FEFCD
:1002D000E3EDF0E39150E040F040E1F700C00000B2
:1002E0000E944204C0928801FCCE0E940107803126
:1002F000E1F70E94420488EE90E00E942C040E94E4
:10030000460487EF90E00E942C040E94FD02182F03
:1003100086ED810F8230C8F7812F0E94FD060E9472
:100320004204812F0E9462032FEF89E698E1215059
:1003300080409040E1F700C000001A3219F4B092FA
:100340008801CFCE1B3209F0CCCEA0928801C9CE55
:1003500088E091E00E942C040E94460400E010E036
:100360000E94FD02D82EE1E0F0E0EC0FFD1FE00F4F
:10037000F11F80838AE20E946203E3E4DE120BC075
:100380000E94420489E091E00E942C040E944604ED
:1003900000E010E0E5CF0F5F1F4F0530110504F3BB
:1003A0000E94420488E191E00E942C048E010F5FBC
:1003B0001F4FF80181918F010E94FD06E016F106A2
:1003C000C1F70E9442040E940107811114C087E214
:1003D00091E00E942C04FFEF23ED80E3F1502040D8
:1003E0008040E1F700C000000E9442040E94010723
:1003F0008093880176CE813009F073CE87E391E057
:100400000E942C049FEFE3EDF0E39150E040F040B8
:10041000E1F700C000000E9442040E940107803101
:10042000E1F70E94290689E490E00E949F0668E9AE
:100430007AE380E090E00E94360688E491E00E9432
:100440002C040E948B06809188018230E1F749CE0E
:1004500088E091E00E942C040E94460400E010E035
:100460000E94FD02D82EE1E0F0E0EC0FFD1FE00F4E
:10047000F11F80838AE20E94620323E4D2120BC040
:100480000E94420489E091E00E942C040E944604EC
:1004900000E010E0E5CF0F5F1F4F0530110504F3BA
:1004A0000E94420488E191E00E942C048E010F5FBB
:1004B0001F4FF80181918F010E94FD06E016F106A1
:1004C000C1F70E9442040E940107811114C088E212
:1004D00091E00E942C04FFEF23ED80E3F1502040D7
:1004E0008040E1F700C000000E9442040E94010722
:1004F00080938801F6CD813009F0F3CD87E391E058
:100500000E942C049FEFE3EDF0E39150E040F040B7
:10051000E1F700C000000E9442040E94010780939E
:100520008801DFCD86E591E00E942C0487E691E00A
:100530000E942C042FEF83ED90E3215080409040E7
:10054000E1F700C000000E94290689E490E00E94C3
:100550009F0660E67AEE80E090E00E9436060E94F8
:10056000420487E791E00E942C040E948B06809150
:1005700088018230E1F7B5CD61E08EE10E944A0446
:1005800061E08FE10E944A0461E080E20E944A0437
:1005900061E081E20E944A0462E082E20E944A0431
:1005A00062E083E20E944A0462E084E20E944A041C
:1005B00062E085E20E944A0461E08EE10E94D30479
:1005C00061E08FE10E94D30461E080E20E94D304E5
:1005D00061E081E20E94D30461E082E20E94A00512
:1005E00061E083E20E94A00561E084E20E94A00530
:1005F00061E085E20E94A0050895AF92BF92CF927C
:10060000DF92EF92FF920F931F93CF93DF93CDB7BB
:10061000DEB760970FB6F894DEBF0FBECDBF80E1A6
:10062000E0E6F0E0DE01119601900D928A95E1F787
:10063000A12CCE0101966C010EE1BA2C62E0802F54
:100640000E94D304760112E2812F0E945C05811181
:1006500015C09FEFE7EEF3E09150E040F040E1F786
:1006600000C00000812F0E945C05811107C0812F0E
:100670000E945C058823D9F3F701B0801F5FFFEF6C
:10068000EF1AFF0A163201F761E0802F0E94D304AF
:100690000F5F24E0C20ED11C023281F6BB2049F26A
:1006A0008B2D60960FB6F894DEBF0FBECDBFDF91E5
:1006B000CF911F910F91FF90EF90DF90CF90BF905F
:1006C000AF900895CF93C82F61E085E10E94D304D5
:1006D0008BB39C2F907F8F70892B8BBB61E087E160
:1006E0000E94D3048FE99FE00197F1F700C000005A
:1006F00062E087E10E94D3048FE19EE40197F1F765
:1007000000C000002BB330E1C39FC0011124922F21
:100710009F70892B8BBB61E087E10E94D3048FE936
:100720009FE00197F1F700C0000062E087E10E94BE
:10073000D3048FE19EE40197F1F700C00000CF9150
:100740000895CF93C82F62E085E10E94D3048BB354
:100750009C2F907F8F70892B8BBB61E087E10E947B
:10076000D3048FE99FE00197F1F700C0000062E039
:1007700087E10E94D3048FE19EE40197F1F700C066
:1007800000002BB330E1C39FC0011124922F9F7052
:10079000892B8BBB61E087E10E94D3048FE99FE046
:1007A0000197F1F700C0000062E087E10E94D304E6
:1007B0008FE19EE40197F1F700C00000CF9108950A
:1007C00061E08AE00E944A0461E08BE00E944A04F2
:1007D00061E08CE00E944A0461E08DE00E944A04DE
:1007E00061E08EE00E944A0461E08FE00E944A04CA
:1007F00061E080E10E944A0461E081E10E944A04D4
:1008000061E085E10E944A0461E086E10E944A04B9
:1008100061E087E10E944A0462E086E10E94D3041D
:100820002FEF83ED90E3215080409040E1F700C02E
:10083000000083E30E94A10382E30E94A10388E2F7
:100840000E94A1038CE00E94A10381E00E94A10309
:1008500082E00E94A10308950F931F93CF93FC01A0
:100860008081882359F08F01C0E00E946203CF5F2E
:10087000F801EC0FF11D80818111F7CFCF911F910D
:100880000F91089581E00E94A103089580EC0E94D9
:10089000A10308959DEC899F912D1124292F269560
:1008A00026952695220F322F330F330F230F821BED
:1008B000282F969596959695613019F06230C1F182
:1008C00008959230A1F018F4913031F008959330EA
:1008D000C9F0943011F108953AB381E090E002C07C
:1008E000880F991F2A95E2F7832B8ABB089537B3A7
:1008F00081E090E002C0880F991F2A95E2F7832BD0
:1009000087BB089534B381E090E002C0880F991F3F
:100910002A95E2F7832B84BB089531B381E090E000
:1009200002C0880F991F2A95E2F7832B81BB089597
:100930009230A9F018F4913031F008959330D9F045
:10094000943029F108953AB381E090E002C0880F15
:10095000991F2A95E2F7809583238ABB089537B3C0
:1009600081E090E002C0880F991F2A95E2F78095F8
:10097000832387BB089534B381E090E002C0880FE1
:10098000991F2A95E2F78095832384BB089531B39C
:1009900081E090E002C0880F991F2A95E2F78095C8
:1009A000832381BB08959DEC899F912D1124292FCC
:1009B000269526952695220F322F330F330F230FBE
:1009C000821B282F969596959695613019F0623086
:1009D000C1F108959230A1F018F4913031F00895EA
:1009E0009330C9F0943011F108953BB381E090E069
:1009F00002C0880F991F2A95E2F7832B8BBB0895BD
:100A000038B381E090E002C0880F991F2A95E2F781
:100A1000832B88BB089535B381E090E002C0880F36
:100A2000991F2A95E2F7832B85BB089532B381E0A5
:100A300090E002C0880F991F2A95E2F7832B82BBB2
:100A400008959230A9F018F4913031F00895933060
:100A5000D9F0943029F108953BB381E090E002C0D1
:100A6000880F991F2A95E2F7809583238BBB089501
:100A700038B381E090E002C0880F991F2A95E2F711
:100A80008095832388BB089535B381E090E002C050
:100A9000880F991F2A95E2F78095832385BB0895D7
:100AA00032B381E090E002C0880F991F2A95E2F7E7
:100AB0008095832382BB08959DEC899F912D1124FD
:100AC000292F269526952695220F322F330F330F87
:100AD000230F821B282F892F869586958695823035
:100AE00091F018F4813031F029C08330A9F08430BE
:100AF000E1F024C089B390E002C0959587952A95CE
:100B0000E2F78170089586B390E002C095958795CD
:100B10002A95E2F78170089583B390E002C095951D
:100B200087952A95E2F78170089580B390E002C01E
:100B3000959587952A95E2F78170089580E008954C
:100B40009DEC899F912D1124292F26952695269578
:100B5000220F322F330F330F230F821B282F96952E
:100B600096959695613019F06230C1F108959230F2
:100B7000A1F018F4913031F008959330C9F0943019
:100B800011F108953BB381E090E002C0880F991FF6
:100B90002A95E2F7832B8BBB089538B381E090E070
:100BA00002C0880F991F2A95E2F7832B88BB08950E
:100BB00035B381E090E002C0880F991F2A95E2F7D3
:100BC000832B85BB089532B381E090E002C0880F8B
:100BD000991F2A95E2F7832B82BB08959230A9F0E2
:100BE00018F4913031F008959330D9F0943029F110
:100BF00008953BB381E090E002C0880F991F2A95C9
:100C0000E2F7809583238BBB089538B381E090E0B1
:100C100002C0880F991F2A95E2F78095832388BB2D
:100C2000089535B381E090E002C0880F991F2A959E
:100C3000E2F78095832385BB089532B381E090E08D
:100C400002C0880F991F2A95E2F78095832382BB03
:100C5000089583B7886083BF83B78F7B83BF89B7CD
:100C6000826089BF8FB780688FBF08958F929F92EF
:100C7000AF92BF92CF92DF92EF92FF92CF939B0100
:100C8000AC01A8EEB3E00E9427074B015C01689419
:100C900015F8B694A794979487941694D1F7C50144
:100CA000B4012FEF30E040E050E00E940507672BD1
:100CB000682B692B89F4CFEFC150CC2ED12CE12CBD
:100CC000F12CC501B401A70196010E940507672B0D
:100CD000682B692B89F305C0C12CD12C7601CA94ED
:100CE000CFEFC501B401A70196010E94050720932B
:100CF0008D0130938E0140938F0150939001C1502C
:100D0000CCBFCF91FF90EF90DF90CF90BF90AF908E
:100D10009F908F90089583B7816083BF83B78D7F45
:100D200083BF83B7846083BF089583B78E7F83BFFB
:100D300083B78D7F83BF83B78B7F83BF08959093E5
:100D400092018093910108951F920F920FB60F9216
:100D500011242F933F934F935F936F937F938F93C0
:100D60009F93AF93BF93EF93FF93809189019091ED
:100D70008A01A0918B01B0918C010196A11DB11D3A
:100D80008093890190938A01A0938B01B0938C0189
:100D900040918D0150918E0160918F017091900171
:100DA00084179507A607B70769F4E0919101F091C0
:100DB000920109951092890110928A0110928B017B
:100DC00010928C01FF91EF91BF91AF919F918F9104
:100DD0007F916F915F914F913F912F910F900FBE37
:100DE0000F901F9018958898899A529887E689B92C
:100DF00086E880BD549A539A08958CB95E9BFECFC5
:100E000008955F9BFECF8CB10895A1E21A2EAA1B14
:100E1000BB1BFD010DC0AA1FBB1FEE1FFF1FA217AA
:100E2000B307E407F50720F0A21BB30BE40BF50BA7
:100E3000661F771F881F991F1A9469F76095709530
:100E4000809590959B01AC01BD01CF0108950E9452
:100E50003207A59F900DB49F900DA49F800D911D0A
:100E600011240895A29FB001B39FC001A39F700DEC
:100E7000811D1124911DB29F700D811D1124911DA2
:060E80000895F894FFCF75
:100E86003738392F3435362A3132332D43303D2B1E
:100E96004372656174652050617373776F72640085
:100EA600507265737320273D2720546F00436F6E81
:100EB6006669726D2050617373776F72640050615A
:100EC6007373776F72642053656E7421002020431C
:100ED6006F6E6669726D6174696F6E00204E6F7415
:100EE600204D617463686564202100202020204D18
:100EF60061746368656421002050617373776F7253
:100F0600642053617665640020202A3A204F5045BC
:100F16004E20444F4F52002B3A5265736574205051
:100F2600617373776F72640020456E74657220502A
:100F3600617373776F7264002020436865636B6921
:100F46006E672E2E2E2E002057726F6E6720506110
:100F56007373776F726400436F72726563742050A7
:100F6600617373776F7264002020204F70656E691D
:100F76006E67212E2E002A57726F6E67205061739E
:100F860073776F72647300204C696D6974205265C3
:100F960061636865642100576169742036302053A7
:080FA60065636F6E64732100A6
:00000001FF
