S0180000446F6F725F4C6F636B5F53797374656D2E73726563AC
S11300000C942A000C943F000C943F000C943F0085
S11300100C943F000C943F000C943F000C943F0060
S11300200C943F000C943F000C943F000C943F0050
S11300300C943F000C943F000C943F000C943F0040
S11300400C943F000C943F000C943F000C943F0030
S11300500C943F0011241FBECFE5D8E0DEBFCDBF16
S113006010E0A0E6B0E0ECEEF6E002C005900D92E0
S1130070AC36B107D9F70E9441000C9474030C9478
S113008000000E946D0183E00E94A40182E00E94AE
S1130090A4010E9407010E947A0080E690E00E9479
S11300A0530182E00E94B901813089F40E94690100
S11300B081E00E947A012FEF81EE94E0215080408C
S11300C09040E1F700C0000081E00E948F0183E0CE
S11300D00E94B901813029F70E947F002FEF83ED40
S11300E090E3215080409040E1F700C000000E945E
S11300F08400D7CF61E08DE00E941E02089561E084
S11301008DE00E94A702089562E08DE00E94A7029C
S11301100895CF93C82F61E085E10E94A7028BB3B5
S11301209C2F907F8F70892B8BBB61E087E10E94AD
S1130130A7028FE99FE00197F1F700C0000062E099
S113014087E10E94A7028FE19EE40197F1F700C0C6
S113015000002BB330E1C39FC0011124922F9F7084
S1130160892B8BBB61E087E10E94A7028FE99FE0A6
S11301700197F1F700C0000062E087E10E94A70246
S11301808FE19EE40197F1F700C00000CF9108953C
S1130190CF93C82F62E085E10E94A7028BB39C2F06
S11301A0907F8F70892B8BBB61E087E10E94A7024F
S11301B08FE99FE00197F1F700C0000062E087E15A
S11301C00E94A7028FE19EE40197F1F700C00000AE
S11301D02BB330E1C39FC0011124922F9F70892B50
S11301E08BBB61E087E10E94A7028FE99FE0019742
S11301F0F1F700C0000062E087E10E94A7028FE1EE
S11302009EE40197F1F700C00000CF91089561E0EA
S11302108AE00E941E0261E08BE00E941E0261E0FF
S11302208CE00E941E0261E08DE00E941E0261E0EB
S11302308EE00E941E0261E08FE00E941E0261E0D7
S113024080E10E941E0261E081E10E941E0261E0E1
S113025085E10E941E0261E086E10E941E0261E0C7
S113026087E10E941E0262E086E10E94A7022FEF4E
S113027083ED90E3215080409040E1F700C00000FE
S113028083E30E94C80082E30E94C80088E20E94BF
S1130290C8008CE00E94C80081E00E94C80082E08F
S11302A00E94C80008950F931F93CF93FC0180818F
S11302B0882359F08F01C0E00E948900CF5FF801C4
S11302C0EC0FF11D80818111F7CFCF911F910F9118
S11302D0089581E00E94C800089561E080E20E94D0
S11302E01E0261E085E20E941E0261E08BE20E9430
S11302F01E020895823049F0833061F0813071F438
S113030061E080E20E94A702089561E085E20E9414
S1130310A702089561E08BE20E94A702089582304B
S113032049F0833061F0813071F462E080E20E9430
S1130330A702089562E085E20E94A702089562E0A0
S11303408BE20E94A7020895823049F0833061F065
S1130350813071F462E084E10E941E02089562E03B
S11303608EE20E941E02089562E08AE20E941E024A
S11303700895823009F18330C9F1813009F050C009
S113038084E10E943003813009F04CC02FEF89EFE3
S113039090E0215080409040E1F700C0000084E1EB
S11303A00E943003813009F03FC084E10E94300391
S11303B08130D9F381E008958EE20E9430038130C8
S11303C0A9F52FEF89EF90E0215080409040E1F7AC
S11303D000C000008EE20E943003813049F58EE2B5
S11303E00E9430038130D9F381E008958AE20E94AB
S11303F030038130F9F42FEF89EF90E021508040F1
S11304009040E1F700C000008AE20E94300381308E
S113041099F48AE20E9430038130D9F381E008958F
S113042080E0089580E0089580E0089580E00895D4
S113043080E0089580E0089580E008959DEC899F10
S1130440912D1124292F269526952695220F322F9A
S1130450330F330F230F821B282F9695969596956D
S1130460613019F06230C1F108959230A1F018F4AE
S1130470913031F008959330C9F0943011F108951A
S11304803AB381E090E002C0880F991F2A95E2F701
S1130490832B8ABB089537B381E090E002C0880FB4
S11304A0991F2A95E2F7832B87BB089534B381E023
S11304B090E002C0880F991F2A95E2F7832B84BB32
S11304C0089531B381E090E002C0880F991F2A9506
S11304D0E2F7832B81BB08959230A9F018F4913090
S11304E031F008959330D9F0943029F108953AB356
S11304F081E090E002C0880F991F2A95E2F7809569
S113050083238ABB089537B381E090E002C0880F4B
S1130510991F2A95E2F78095832387BB089534B306
S113052081E090E002C0880F991F2A95E2F7809538
S1130530832384BB089531B381E090E002C0880F27
S1130540991F2A95E2F78095832381BB08959DEC3A
S1130550899F912D1124292F269526952695220FC2
S1130560322F330F330F230F821B282F9695969526
S11305709695613019F06230C1F108959230A1F07E
S113058018F4913031F008959330C9F0943011F19A
S113059008953BB381E090E002C0880F991F2A952B
S11305A0E2F7832B8BBB089538B381E090E002C05F
S11305B0880F991F2A95E2F7832B88BB089535B3DA
S11305C081E090E002C0880F991F2A95E2F7832BFF
S11305D085BB089532B381E090E002C0880F991F73
S11305E02A95E2F7832B82BB08959230A9F018F480
S11305F0913031F008959330D9F0943029F1089571
S11306003BB381E090E002C0880F991F2A95E2F77E
S1130610809583238BBB089538B381E090E002C0BA
S1130620880F991F2A95E2F78095832388BB089544
S113063035B381E090E002C0880F991F2A95E2F754
S11306408095832385BB089532B381E090E002C096
S1130650880F991F2A95E2F78095832382BB08951A
S11306609DEC899F912D1124292F26952695269559
S1130670220F322F330F330F230F821B282F892F82
S1130680869586958695823091F018F4813031F004
S113069029C08330A9F08430E1F024C089B390E00C
S11306A002C0959587952A95E2F78170089586B3DF
S11306B090E002C0959587952A95E2F78170089598
S11306C083B390E002C0959587952A95E2F78170EF
S11306D0089580B390E002C0959587952A95E2F736
S10F06E08170089580E00895F894FFCF25
S10F06EC496E697420446F6E6520210083
S9030000FC
