S0180000446F6F725F4C6F636B5F53797374656D2E73726563AC
S11300000C942A000C943F000C943F000C943F0085
S11300100C943F000C943F000C943F000C943F0060
S11300200C943F000C943F000C943F000C943F0050
S11300300C943F000C943F000C943F000C943F0040
S11300400C943F000C943F000C943F000C943F0030
S11300500C943F0011241FBECFE5D8E0DEBFCDBF16
S113006010E0A0E6B0E0E2E6F8E002C005900D92F0
S1130070AA3BB107D9F70E9441000C942F040C94B9
S113008000000E94B9000E94D8010E941D0480E76C
S113009090E00E9424022FEF83ED90E321508040F2
S11300A09040E1F700C000000E943A028CE790E023
S11300B00E9424022FEF87EA91E62150804090406D
S11300C0E1F700C000000E943A02E12CF12C00E0AC
S11300D010E041C004301105F1F50E942B04843571
S11300E039F40E943A028CE890E00E94240233C062
S11300F0863489F524E0E216F1042CF50E943A02D4
S113010086E990E00E9424028FEF97EA21E681506D
S113011090402040E1F700C000000E943A0282EAC9
S113012090E00E9424028FEF97EA21E681509040EC
S11301302040E1F700C000000E943A028FEFE81A65
S1130140F80A00E010E095E0E916F10424F081EBF0
S113015090E00E9424020E94FA00C82F882309F428
S1130160B9CF0E945A018C2F0E9427040F5F1F4FA2
S1130170B1CF61E08EE10E943E0261E08FE10E9416
S11301803E0261E080E20E943E0261E081E20E9460
S11301903E0262E082E20E943E0262E083E20E944A
S11301A03E0262E084E20E943E0262E085E20E9436
S11301B03E0261E08EE10E94C70261E08FE10E948D
S11301C0C70261E080E20E94C70261E081E20E940E
S11301D0C70261E082E20E94940361E083E20E942C
S11301E0940361E084E20E94940361E085E20E944A
S11301F094030895BF92CF92DF92EF92FF920F93F0
S11302001F93CF93DF93CDB7DEB760970FB6F89403
S1130210DEBF0FBECDBF80E1E0E6F0E0DE01119667
S113022001900D928A95E1F7CE0101966C010EE1E1
S1130230B12C62E0802F0E94C702760112E2812F66
S11302400E945003811115C09FEFE7EEF3E0915037
S1130250E040F040E1F700C00000812F0E9450030D
S1130260811107C0812F0E9450038823D9F3F7011D
S1130270B0801F5FFFEFEF1AFF0A163201F761E04B
S1130280802F0E94C7020F5F24E0C20ED11C0232ED
S113029081F68B2D60960FB6F894DEBF0FBECDBFEE
S11302A0DF91CF911F910F91FF90EF90DF90CF904E
S11302B0BF900895CF93C82F61E085E10E94C702E3
S11302C08BB39C2F907F8F70892B8BBB61E087E170
S11302D00E94C7028FE99FE00197F1F700C0000078
S11302E062E087E10E94C7028FE19EE40197F1F783
S11302F000C000002BB330E1C39FC0011124922F32
S11303009F70892B8BBB61E087E10E94C7028FE954
S11303109FE00197F1F700C0000062E087E10E94CE
S1130320C7028FE19EE40197F1F700C00000CF916E
S11303300895CF93C82F62E085E10E94C7028BB372
S11303409C2F907F8F70892B8BBB61E087E10E948B
S1130350C7028FE99FE00197F1F700C0000062E057
S113036087E10E94C7028FE19EE40197F1F700C084
S113037000002BB330E1C39FC0011124922F9F7062
S1130380892B8BBB61E087E10E94C7028FE99FE064
S11303900197F1F700C0000062E087E10E94C70204
S11303A08FE19EE40197F1F700C00000CF9108951A
S11303B061E08AE00E943E0261E08BE00E943E021E
S11303C061E08CE00E943E0261E08DE00E943E020A
S11303D061E08EE00E943E0261E08FE00E943E02F6
S11303E061E080E10E943E0261E081E10E943E0200
S11303F061E085E10E943E0261E086E10E943E02E6
S113040061E087E10E943E0262E086E10E94C70249
S11304102FEF83ED90E3215080409040E1F700C03E
S1130420000083E30E94990182E30E94990188E21B
S11304300E9499018CE00E94990181E00E94990137
S113044082E00E94990108950F931F93CF93FC01BA
S11304508081882359F08F01C0E00E945A01CF5F48
S1130460F801EC0FF11D80818111F7CFCF911F911D
S11304700F91089581E00E94990108959DEC899F50
S1130480912D1124292F269526952695220F322F5A
S1130490330F330F230F821B282F9695969596952D
S11304A0613019F06230C1F108959230A1F018F46E
S11304B0913031F008959330C9F0943011F10895DA
S11304C03AB381E090E002C0880F991F2A95E2F7C1
S11304D0832B8ABB089537B381E090E002C0880F74
S11304E0991F2A95E2F7832B87BB089534B381E0E3
S11304F090E002C0880F991F2A95E2F7832B84BBF2
S1130500089531B381E090E002C0880F991F2A95C5
S1130510E2F7832B81BB08959230A9F018F491304F
S113052031F008959330D9F0943029F108953AB315
S113053081E090E002C0880F991F2A95E2F7809528
S113054083238ABB089537B381E090E002C0880F0B
S1130550991F2A95E2F78095832387BB089534B3C6
S113056081E090E002C0880F991F2A95E2F78095F8
S1130570832384BB089531B381E090E002C0880FE7
S1130580991F2A95E2F78095832381BB08959DECFA
S1130590899F912D1124292F269526952695220F82
S11305A0322F330F330F230F821B282F96959695E6
S11305B09695613019F06230C1F108959230A1F03E
S11305C018F4913031F008959330C9F0943011F15A
S11305D008953BB381E090E002C0880F991F2A95EB
S11305E0E2F7832B8BBB089538B381E090E002C01F
S11305F0880F991F2A95E2F7832B88BB089535B39A
S113060081E090E002C0880F991F2A95E2F7832BBE
S113061085BB089532B381E090E002C0880F991F32
S11306202A95E2F7832B82BB08959230A9F018F43F
S1130630913031F008959330D9F0943029F1089530
S11306403BB381E090E002C0880F991F2A95E2F73E
S1130650809583238BBB089538B381E090E002C07A
S1130660880F991F2A95E2F78095832388BB089504
S113067035B381E090E002C0880F991F2A95E2F714
S11306808095832385BB089532B381E090E002C056
S1130690880F991F2A95E2F78095832382BB0895DA
S11306A09DEC899F912D1124292F26952695269519
S11306B0220F322F330F330F230F821B282F892F42
S11306C0869586958695823091F018F4813031F0C4
S11306D029C08330A9F08430E1F024C089B390E0CC
S11306E002C0959587952A95E2F78170089586B39F
S11306F090E002C0959587952A95E2F78170089558
S113070083B390E002C0959587952A95E2F78170AE
S1130710089580B390E002C0959587952A95E2F7F5
S11307208170089580E008959DEC899F912D112496
S1130730292F269526952695220F322F330F330F16
S1130740230F821B282F969596959695613019F064
S11307506230C1F108959230A1F018F4913031F073
S113076008959330C9F0943011F108953BB381E0BA
S113077090E002C0880F991F2A95E2F7832B8BBB68
S1130780089538B381E090E002C0880F991F2A953C
S1130790E2F7832B88BB089535B381E090E002C073
S11307A0880F991F2A95E2F7832B85BB089532B3EE
S11307B081E090E002C0880F991F2A95E2F7832B0D
S11307C082BB08959230A9F018F4913031F0089565
S11307D09330D9F0943029F108953BB381E090E04F
S11307E002C0880F991F2A95E2F7809583238BBB5B
S11307F0089538B381E090E002C0880F991F2A95CC
S1130800E2F78095832388BB089535B381E090E0B7
S113081002C0880F991F2A95E2F78095832385BB30
S1130820089532B381E090E002C0880F991F2A95A1
S1130830E2F78095832382BB08958898899A529819
S113084087E689B986E880BD549A539A08958CB98D
S11308505E9BFECF08955F9BFECF8CB10895F89404
S1050860FFCFC4
S11308623738392F3435362A3132332D43303D2B44
S1130872496E697420446F6E65202100456E74656B
S1130882722050617373776F726421004F70656ECA
S1130892696E6720210057726F6E6720506173730F
S11308A22100456E7465722050617373776F7264B0
S10D08B20054484549462021000087
S9030000FC
