:100000000C942A000C9447000C9447000C94470071
:100010000C9447000C9447000C9447000C94470044
:100020000C9447000C9447000C9447000C94470034
:100030000C9447000C9447000C9447000C94470024
:100040000C9447000C9447000C9447000C94470014
:100050000C94470011241FBECFE5D8E0DEBFCDBF12
:1000600010E0A0E6B0E0EEE8F8E002C005900D92E6
:10007000A03BB107D9F720E0A0EBB0E001C01D9292
:10008000A63BB207E1F70E9449000C9445040C948A
:1000900000000E9450000E9466000E947C00FBCF7E
:1000A0000E94EE010E94CF000E94330480E790E09E
:1000B0000E943A022FEF83ED90E321508040904060
:1000C000E1F700C000000E94500208950E94100154
:1000D0008093B400882379F00E9470018091B4006D
:1000E0000E943D048091B2009091B30001969093DC
:1000F000B3008093B20008958091B2009091B30054
:10010000049709F04BC00E9441048093B5008435E8
:1001100031F40E9450028AE790E00E943A028091F6
:10012000B5008634D9F58091B0009091B100019668
:100130009093B1008093B000039750F50E94500255
:1001400084E890E00E943A022FEF87EA91E621507E
:1001500080409040E1F700C000000E94500283E917
:1001600090E00E943A022FEF87EA91E6215080400A
:100170009040E1F700C000000E9450021092B300CE
:100180001092B2008091B0009091B100039730F0CE
:100190000E94500282EA90E00E943A02089561E0D3
:1001A0008EE10E94540261E08FE10E94540261E0FE
:1001B00080E20E94540261E081E20E94540262E007
:1001C00082E20E94540262E083E20E94540262E0F2
:1001D00084E20E94540262E085E20E94540261E0DF
:1001E0008EE10E94DD0261E08FE10E94DD0261E0AC
:1001F00080E20E94DD0261E081E20E94DD0261E0B6
:1002000082E20E94AA0361E083E20E94AA0361E005
:1002100084E20E94AA0361E085E20E94AA03089595
:10022000BF92CF92DF92EF92FF920F931F93CF93E3
:10023000DF93CDB7DEB760970FB6F894DEBF0FBE81
:10024000CDBF80E1E0E6F0E0DE01119601900D9275
:100250008A95E1F7CE0101966C010EE1B12C62E0C6
:10026000802F0E94DD02760112E2812F0E94660338
:10027000811115C09FEFE7EEF3E09150E040F040B0
:10028000E1F700C00000812F0E946603811107C0C2
:10029000812F0E9466038823D9F3F701B0801F5F86
:1002A000FFEFEF1AFF0A163201F761E0802F0E947C
:1002B000DD020F5F24E0C20ED11C023281F68B2DCD
:1002C00060960FB6F894DEBF0FBECDBFDF91CF9121
:1002D0001F910F91FF90EF90DF90CF90BF90089506
:1002E000CF93C82F61E085E10E94DD028BB39C2F84
:1002F000907F8F70892B8BBB61E087E10E94DD02CC
:100300008FE99FE00197F1F700C0000062E087E10C
:100310000E94DD028FE19EE40197F1F700C000002A
:100320002BB330E1C39FC0011124922F9F70892B02
:100330008BBB61E087E10E94DD028FE99FE00197BE
:10034000F1F700C0000062E087E10E94DD028FE16A
:100350009EE40197F1F700C00000CF910895CF937C
:10036000C82F62E085E10E94DD028BB39C2F907F55
:100370008F70892B8BBB61E087E10E94DD028FE9E2
:100380009FE00197F1F700C0000062E087E10E9462
:10039000DD028FE19EE40197F1F700C000002BB36E
:1003A00030E1C39FC0011124922F9F70892B8BBB1A
:1003B00061E087E10E94DD028FE99FE00197F1F79C
:1003C00000C0000062E087E10E94DD028FE19EE450
:1003D0000197F1F700C00000CF91089561E08AE035
:1003E0000E94540261E08BE00E94540261E08CE0C4
:1003F0000E94540261E08DE00E94540261E08EE0B0
:100400000E94540261E08FE00E94540261E080E1AA
:100410000E94540261E081E10E94540261E085E1A2
:100420000E94540261E086E10E94540261E087E18B
:100430000E94540262E086E10E94DD022FEF83ED0C
:1004400090E3215080409040E1F700C0000083E33A
:100450000E94AF0182E30E94AF0188E20E94AF01D7
:100460008CE00E94AF0181E00E94AF0182E00E9417
:10047000AF0108950F931F93CF93FC0180818823D0
:1004800059F08F01C0E00E947001CF5FF801EC0FBE
:10049000F11D80818111F7CFCF911F910F910895A8
:1004A00081E00E94AF0108959DEC899F912D112458
:1004B000292F269526952695220F322F330F330F9D
:1004C000230F821B282F969596959695613019F0EB
:1004D0006230C1F108959230A1F018F4913031F0FA
:1004E00008959330C9F0943011F108953AB381E042
:1004F00090E002C0880F991F2A95E2F7832B8ABBF0
:10050000089537B381E090E002C0880F991F2A95C3
:10051000E2F7832B87BB089534B381E090E002C0FB
:10052000880F991F2A95E2F7832B84BB089531B376
:1005300081E090E002C0880F991F2A95E2F7832B93
:1005400081BB08959230A9F018F4913031F00895EC
:100550009330D9F0943029F108953AB381E090E0D6
:1005600002C0880F991F2A95E2F7809583238ABBE2
:10057000089537B381E090E002C0880F991F2A9553
:10058000E2F78095832387BB089534B381E090E040
:1005900002C0880F991F2A95E2F78095832384BBB8
:1005A000089531B381E090E002C0880F991F2A9529
:1005B000E2F78095832381BB08959DEC899F912D5F
:1005C0001124292F269526952695220F322F330F99
:1005D000330F230F821B282F9695969596956130A1
:1005E00019F06230C1F108959230A1F018F4913001
:1005F00031F008959330C9F0943011F108953BB370
:1006000081E090E002C0880F991F2A95E2F7832BC2
:100610008BBB089538B381E090E002C0880F991F2A
:100620002A95E2F7832B88BB089535B381E090E0EB
:1006300002C0880F991F2A95E2F7832B85BB089586
:1006400032B381E090E002C0880F991F2A95E2F74B
:10065000832B82BB08959230A9F018F4913031F0C9
:1006600008959330D9F0943029F108953BB381E097
:1006700090E002C0880F991F2A95E2F780958323A6
:100680008BBB089538B381E090E002C0880F991FBA
:100690002A95E2F78095832388BB089535B381E0DE
:1006A00090E002C0880F991F2A95E2F78095832376
:1006B00085BB089532B381E090E002C0880F991F96
:1006C0002A95E2F78095832382BB08959DEC899F4C
:1006D000912D1124292F269526952695220F322F0C
:1006E000330F330F230F821B282F892F8695869572
:1006F0008695823091F018F4813031F029C0833032
:10070000A9F08430E1F024C089B390E002C095954F
:1007100087952A95E2F78170089586B390E002C02C
:10072000959587952A95E2F78170089583B390E0B7
:1007300002C0959587952A95E2F78170089580B358
:1007400090E002C0959587952A95E2F7817008950B
:1007500080E008959DEC899F912D1124292F2695E5
:1007600026952695220F322F330F330F230F821B2E
:10077000282F969596959695613019F06230C1F1C3
:1007800008959230A1F018F4913031F0089593302B
:10079000C9F0943011F108953BB381E090E002C0BC
:1007A000880F991F2A95E2F7832B8BBB089538B3E6
:1007B00081E090E002C0880F991F2A95E2F7832B11
:1007C00088BB089535B381E090E002C0880F991F7F
:1007D0002A95E2F7832B85BB089532B381E090E040
:1007E00002C0880F991F2A95E2F7832B82BB0895D8
:1007F0009230A9F018F4913031F008959330D9F087
:10080000943029F108953BB381E090E002C0880F55
:10081000991F2A95E2F7809583238BBB089538B3FF
:1008200081E090E002C0880F991F2A95E2F7809539
:10083000832388BB089535B381E090E002C0880F20
:10084000991F2A95E2F78095832385BB089532B3DB
:1008500081E090E002C0880F991F2A95E2F7809509
:10086000832382BB08958898899A529887E689B92C
:1008700086E880BD549A539A08958CB95E9BFECF4A
:0E08800008955F9BFECF8CB10895F894FFCFD2
:10088E003738392F3435362A3132332D43303D2B1C
:10089E0057656C636F6D652021004F70656E696ED4
:1008AE006720210057726F6E672050617373776FE8
:1008BE00726400456E7465722050617373776F7247
:1008CE006400444F4F52204C4F434B45442100008F
:00000001FF
