:100000000C942A000C9447000C9447000C94470071
:100010000C9447000C9447000C9447000C94470044
:100020000C9447000C9447000C94BE060C944700B7
:100030000C9447000C9447000C9447000C94470024
:100040000C9447000C9447000C9447000C94470014
:100050000C94470011241FBECFE5D8E0DEBFCDBF12
:1000600011E0A0E6B0E0EAEBFEE002C005900D92E0
:10007000A838B107D9F721E0A8E8B1E001C01D9286
:10008000A339B207E1F70E944F000C945B070C9470
:1000900000000E94AF0682E0809388010895CF930C
:1000A000DF9300D000D01F92CDB7DEB70E94D602FA
:1000B0000E94FA030E940D0780E20E9417070E9427
:1000C0001B07809388016894AA24A2F80F2EF3E0FE
:1000D000BF2EF02D7E0126E0E20EF11C6894CC24A8
:1000E000C1F880918801823009F40DC130F4882371
:1000F00069F0813009F4EFC0F4CF843009F4BCC159
:1001000008F434C1853009F427C2EBCF80E790E0D2
:100110000E9446048FEF93EDE0E381509040E04071
:10012000E1F700C000000E945C0489E091E00E94B9
:1001300046040E94600400E010E00E941703D82EDD
:10014000E1E0F0E0EC0FFD1FE00FF11F80838AE299
:100150000E947C03F3E4DF120BC00E945C0489E080
:1001600091E00E9446040E94600400E010E0E5CFA8
:100170000F5F1F4F0530110504F30E945C0480E8F7
:1001800090E00E9446040E9460048DE890E00E9486
:1001900046040E9417038D3391F7CE0101964C015E
:1001A0008C01EFE9FFE03197F1F700C00000F801A2
:1001B00081918F010E9417070E151F0591F70E946C
:1001C0005C048EE990E00E944604FFEF29E688E196
:1001D000F15020408040E1F700C000000E945C0424
:1001E0008DEA90E00E9446040E94600489E091E05C
:1001F0000E9446049FEFE9E6F8E19150E040F040AC
:10020000E1F700C000000E945C0489E091E00E94D8
:1002100046040E94600400E010E00E941703D82EFC
:10022000E1E0F0E0EC0FFD1FE00FF11F80838AE2B8
:100230000E947C0323E4D2120BC00E945C0489E07C
:1002400091E00E9446040E94600400E010E0E5CFC7
:100250000F5F1F4F0530110504F30E945C0480E816
:1002600090E00E9446040E9460048DE890E00E94A5
:1002700046040E9417038D3391F78FE99FE00197A1
:10028000F1F700C00000F40181914F010E941707AF
:100290008E149F0491F70E945C048EE990E00E9406
:1002A00046040E941B07809388010E945C04809191
:1002B0008801811116CF8CEB90E00E944604FFEF7D
:1002C00023ED80E3F15020408040E1F700C00000C2
:1002D0000E945C0406CF8BEC90E00E9446040E94D2
:1002E000600488ED90E00E9446049FEFE3EDF0E3A8
:1002F0009150E040F040E1F700C000000E945C0433
:10030000C0928801EECE0E941B078031E1F70E9467
:100310005C0488EE90E00E9446040E94600487EF2F
:1003200090E00E9446040E941703182F86ED810F6B
:100330008230C8F7812F0E9417070E945C04812F2A
:100340000E947C032FEF89E698E121508040904085
:10035000E1F700C000001A3219F4B0928801C1CE52
:100360001B3209F0BECEA0928801BBCE88E091E09E
:100370000E9446040E94600400E010E00E941703FF
:10038000D82EE1E0F0E0EC0FFD1FE00FF11F8083BD
:100390008AE20E947C03E3E4DE120BC00E945C044C
:1003A00089E091E00E9446040E94600400E010E0B1
:1003B000E5CF0F5F1F4F0530110504F30E945C0469
:1003C00088E191E00E9446048E010F5F1F4F8FE984
:1003D0009FE00197F1F700C00000F80181918F01C3
:1003E0000E941707E016F10691F70E945C040E9434
:1003F0001B07811114C087E291E00E944604FFEFC1
:1004000023ED80E3F15020408040E1F700C0000080
:100410000E945C040E941B078093880162CE813099
:1004200009F05FCE87E391E00E9446049FEFE3ED81
:10043000F0E39150E040F040E1F700C000000E947E
:100440005C040E941B078031E1F70E94430689E4A7
:1004500090E00E94B90668E97AE380E090E00E94AB
:10046000500688E491E00E9446040E94A50680910F
:1004700088018230E1F735CE88E091E00E944604A1
:100480000E94600400E010E00E941703D82EE1E013
:10049000F0E0EC0FFD1FE00FF11F80838AE20E9465
:1004A0007C0323E4D2120BC00E945C0489E091E03B
:1004B0000E9446040E94600400E010E0E5CF0F5F58
:1004C0001F4F0530110504F30E945C0488E191E0A0
:1004D0000E9446048E010F5F1F4F8FE99FE0019736
:1004E000F1F700C00000F80181918F010E94170709
:1004F000E016F10691F70E945C040E941B0781112F
:1005000014C088E291E00E944604FFEF23ED80E3EF
:10051000F15020408040E1F700C000000E945C04E0
:100520000E941B0780938801DCCD813009F0D9CD72
:1005300087E391E00E9446049FEFE3EDF0E39150E2
:10054000E040F040E1F700C000000E945C040E941F
:100550001B0780938801C5CD86E591E00E94460483
:1005600087E691E00E9446042FEF83ED90E321504F
:1005700080409040E1F700C000000E94430689E4FB
:1005800090E00E94B90660E67AEE80E090E00E947A
:1005900050060E945C0487E791E00E9446040E9496
:1005A000A506809188018230E1F79BCD61E08EE164
:1005B0000E94640461E08FE10E94640461E080E2D3
:1005C0000E94640461E081E20E94640462E082E2CD
:1005D0000E94640462E083E20E94640462E084E2B8
:1005E0000E94640462E085E20E94640461E08EE19E
:1005F0000E94ED0461E08FE10E94ED0461E080E281
:100600000E94ED0461E081E20E94ED0461E082E27B
:100610000E94BA0561E083E20E94BA0561E084E2CB
:100620000E94BA0561E085E20E94BA050895AF9282
:10063000BF92CF92DF92EF92FF920F931F93CF93CF
:10064000DF93CDB7DEB760970FB6F894DEBF0FBE6D
:10065000CDBF80E1E0E6F0E0DE01119601900D9261
:100660008A95E1F7A12CCE0101966C010EE1BA2C1E
:1006700062E0802F0E94ED04760112E2812F0E9439
:100680007605811115C09FEFE7EEF3E09150E04051
:10069000F040E1F700C00000812F0E947605811133
:1006A00007C0812F0E9476058823D9F3F701B08017
:1006B0001F5FFFEFEF1AFF0A163201F761E0802F8C
:1006C0000E94ED040F5F24E0C20ED11C023281F6BD
:1006D000BB2049F28B2D60960FB6F894DEBF0FBE9B
:1006E000CDBFDF91CF911F910F91FF90EF90DF90E1
:1006F000CF90BF90AF900895CF93C82F61E085E170
:100700000E94ED048BB39C2F907F8F70892B8BBB45
:1007100061E087E10E94ED048FE99FE00197F1F726
:1007200000C0000062E087E10E94ED048FE19EE4DA
:100730000197F1F700C000002BB330E1C39FC00167
:100740001124922F9F70892B8BBB61E087E10E945F
:10075000ED048FE99FE00197F1F700C0000062E02F
:1007600087E10E94ED048FE19EE40197F1F700C05C
:100770000000CF910895CF93C82F62E085E10E94D9
:10078000ED048BB39C2F907F8F70892B8BBB61E026
:1007900087E10E94ED048FE99FE00197F1F700C027
:1007A000000062E087E10E94ED048FE19EE4019782
:1007B000F1F700C000002BB330E1C39FC00111244A
:1007C000922F9F70892B8BBB61E087E10E94ED0423
:1007D0008FE99FE00197F1F700C0000062E087E138
:1007E0000E94ED048FE19EE40197F1F700C0000044
:1007F000CF91089561E08AE00E94640461E08BE09B
:100800000E94640461E08CE00E94640461E08DE079
:100810000E94640461E08EE00E94640461E08FE065
:100820000E94640461E080E10E94640461E081E16F
:100830000E94640461E085E10E94640461E086E155
:100840000E94640461E087E10E94640462E086E142
:100850000E94ED042FEF83ED90E321508040904003
:10086000E1F700C0000083E30E94BB0382E30E9423
:10087000BB0388E20E94BB038CE00E94BB0381E0C3
:100880000E94BB0382E00E94BB0308950F931F9355
:10089000CF93FC018081882359F08F01C0E00E9432
:1008A0007C03CF5FF801EC0FF11D80818111F7CF40
:1008B000CF911F910F91089581E00E94BB0308958D
:1008C00080EC0E94BB0308959DEC899F912D11241B
:1008D000292F269526952695220F322F330F330F79
:1008E000230F821B282F969596959695613019F0C7
:1008F0006230C1F108959230A1F018F4913031F0D6
:1009000008959330C9F0943011F108953AB381E01D
:1009100090E002C0880F991F2A95E2F7832B8ABBCB
:10092000089537B381E090E002C0880F991F2A959F
:10093000E2F7832B87BB089534B381E090E002C0D7
:10094000880F991F2A95E2F7832B84BB089531B352
:1009500081E090E002C0880F991F2A95E2F7832B6F
:1009600081BB08959230A9F018F4913031F00895C8
:100970009330D9F0943029F108953AB381E090E0B2
:1009800002C0880F991F2A95E2F7809583238ABBBE
:10099000089537B381E090E002C0880F991F2A952F
:1009A000E2F78095832387BB089534B381E090E01C
:1009B00002C0880F991F2A95E2F78095832384BB94
:1009C000089531B381E090E002C0880F991F2A9505
:1009D000E2F78095832381BB08959DEC899F912D3B
:1009E0001124292F269526952695220F322F330F75
:1009F000330F230F821B282F96959695969561307D
:100A000019F06230C1F108959230A1F018F49130DC
:100A100031F008959330C9F0943011F108953BB34B
:100A200081E090E002C0880F991F2A95E2F7832B9E
:100A30008BBB089538B381E090E002C0880F991F06
:100A40002A95E2F7832B88BB089535B381E090E0C7
:100A500002C0880F991F2A95E2F7832B85BB089562
:100A600032B381E090E002C0880F991F2A95E2F727
:100A7000832B82BB08959230A9F018F4913031F0A5
:100A800008959330D9F0943029F108953BB381E073
:100A900090E002C0880F991F2A95E2F78095832382
:100AA0008BBB089538B381E090E002C0880F991F96
:100AB0002A95E2F78095832388BB089535B381E0BA
:100AC00090E002C0880F991F2A95E2F78095832352
:100AD00085BB089532B381E090E002C0880F991F72
:100AE0002A95E2F78095832382BB08959DEC899F28
:100AF000912D1124292F269526952695220F322FE8
:100B0000330F330F230F821B282F892F869586954D
:100B10008695823091F018F4813031F029C083300D
:100B2000A9F08430E1F024C089B390E002C095952B
:100B300087952A95E2F78170089586B390E002C008
:100B4000959587952A95E2F78170089583B390E093
:100B500002C0959587952A95E2F78170089580B334
:100B600090E002C0959587952A95E2F781700895E7
:100B700080E008959DEC899F912D1124292F2695C1
:100B800026952695220F322F330F330F230F821B0A
:100B9000282F969596959695613019F06230C1F19F
:100BA00008959230A1F018F4913031F00895933007
:100BB000C9F0943011F108953BB381E090E002C098
:100BC000880F991F2A95E2F7832B8BBB089538B3C2
:100BD00081E090E002C0880F991F2A95E2F7832BED
:100BE00088BB089535B381E090E002C0880F991F5B
:100BF0002A95E2F7832B85BB089532B381E090E01C
:100C000002C0880F991F2A95E2F7832B82BB0895B3
:100C10009230A9F018F4913031F008959330D9F062
:100C2000943029F108953BB381E090E002C0880F31
:100C3000991F2A95E2F7809583238BBB089538B3DB
:100C400081E090E002C0880F991F2A95E2F7809515
:100C5000832388BB089535B381E090E002C0880FFC
:100C6000991F2A95E2F78095832385BB089532B3B7
:100C700081E090E002C0880F991F2A95E2F78095E5
:100C8000832382BB089583B7886083BF83B78F7B3C
:100C900083BF89B7826089BF8FB780688FBF08958F
:100CA0008F929F92AF92BF92CF92DF92EF92FF927C
:100CB000CF939B01AC01A8EEB3E00E9441074B012A
:100CC0005C01689415F8B694A79497948794169449
:100CD000D1F7C501B4012FEF30E040E050E00E94B1
:100CE0001F07672B682B692B89F4CFEFC150CC2EDF
:100CF000D12CE12CF12CC501B401A70196010E9471
:100D00001F07672B682B692B89F305C0C12CD12CD9
:100D10007601CA94CFEFC501B401A70196010E94E4
:100D20001F0720938D0130938E0140938F015093C4
:100D30009001C150CCBFCF91FF90EF90DF90CF904A
:100D4000BF90AF909F908F90089583B7816083BFCD
:100D500083B78D7F83BF83B7846083BF089583B7D4
:100D60008E7F83BF83B78D7F83BF83B78B7F83BF26
:100D70000895909392018093910108951F920F928C
:100D80000FB60F9211242F933F934F935F936F935E
:100D90007F938F939F93AF93BF93EF93FF93809134
:100DA000890190918A01A0918B01B0918C010196EB
:100DB000A11DB11D8093890190938A01A0938B019D
:100DC000B0938C0140918D0150918E0160918F0103
:100DD0007091900184179507A607B70769F4E09111
:100DE0009101F091920109951092890110928A0166
:100DF00010928B0110928C01FF91EF91BF91AF91F6
:100E00009F918F917F916F915F914F913F912F9122
:100E10000F900FBE0F901F9018958898899A52983E
:100E200087E689B986E880BD549A539A08958CB9AB
:100E30005E9BFECF08955F9BFECF8CB10895A1E22B
:100E40001A2EAA1BBB1BFD010DC0AA1FBB1FEE1F44
:100E5000FF1FA217B307E407F50720F0A21BB30B8F
:100E6000E40BF50B661F771F881F991F1A9469F70B
:100E700060957095809590959B01AC01BD01CF0167
:100E800008950E944C07A59F900DB49F900DA49FBC
:100E9000800D911D11240895A29FB001B39FC00140
:100EA000A39F700D811D1124911DB29F700D811D96
:0A0EB0001124911D0895F894FFCF5E
:100EBA003738392F3435362A3132332D43303D2BEA
:100ECA004372656174652050617373776F72640051
:100EDA00507265737320273D2720546F00436F6E4D
:100EEA006669726D2050617373776F726400506126
:100EFA007373776F72642053656E742100202043E8
:100F0A006F6E6669726D6174696F6E00204E6F74E0
:100F1A00204D617463686564202100202020204DE3
:100F2A0061746368656421002050617373776F721E
:100F3A00642053617665640020202A3A204F504588
:100F4A004E20444F4F52002B3A526573657420501D
:100F5A00617373776F72640020456E7465722050F6
:100F6A00617373776F7264002020436865636B69ED
:100F7A006E672E2E2E2E002057726F6E67205061DC
:100F8A007373776F726400436F7272656374205073
:100F9A00617373776F7264002020204F70656E69E9
:100FAA006E67212E2E002A57726F6E67205061736A
:100FBA0073776F72647300204C696D69742052658F
:100FCA006163686564210057616974203630205373
:080FDA0065636F6E6473210072
:00000001FF
